:1000000002000375813C12012BE582600302006F40
:10001000780079007A007B007C007D00EC4D601C4C
:1000200088828983E493A3A882A9838A828B83F040
:10003000A3AA82AB831CBCFFE31D80E07582007520
:1000400083007C007D00EC4D600AE4F0A31CBCFF43
:10005000F51D80F27582007583007C007D00EC4DFB
:10006000600AE4F0A31CBCFFF51D80F212012A1205
:1000700002B880FE1B5B324A004144432074657322
:10008000742070726F6772616D0A46696C653A2000
:1000900025730A436F6D70696C65643A2025732C73
:1000A0002025730A0A00433A5C59656172325C4547
:1000B0004C45433239315C4C6162355C454C4543BB
:1000C0003239312D6C6162355C45464D385F4144B3
:1000D000432E63004D6172202035203230323400CF
:1000E00031353A30383A3339000A6F766572666CCA
:1000F0006F775F636F756E743A2025640A005469E8
:100100006D65723020486967683A2025640A00549A
:10011000696D657230204C6F773A2025640A003C87
:100120004E4F20464C4F41543E002275A700759714
:10013000DE7597AD75FF8075EF0675A71075C12048
:1001400075A70075A90075A900E5A930E7FB75A999
:100150000375A903E5A930E7FB43A41075E1017518
:10016000E20075E340759810758DE6858D8B538997
:100170000F438920D28ED2997582002275A700C2C2
:10018000EF75B28075BC2075B91E75E80075DF3F4C
:1001900075B300D2EF22AA82438E407592B8759350
:1001A000FF8592948593957591047B00C3EB9A50DB
:1001B0000BE59130E7FB53917F0B80F075910022A6
:1001C000AA82AB837C007D00C3EC9AED9B502B7E12
:1001D00000BE0400501D7582FAC002C003C004C0F6
:1001E00005C006120196D006D005D004D003D00277
:1001F0000E80DE0CBC00D10D80CE22AA82851AF0C2
:1002000005F07401800225E0D5F0FBFB75A720BA4C
:100210000002800ABA0102800FBA021E8014EBF4B9
:10022000FA52F1EB42D48012EBF4FA52F2EB42D5DF
:100230008008EBF4FA52F3EB42CC75A700228582DA
:10024000BBC2EDD2EC30EDFD85BD8285BE832212AE
:10025000023E12043EAA82AB83ACF0FDC002C00392
:10026000C004C005906C8B75F05374401204AAAAA8
:1002700082AB83ACF0FDE58124FCF581E4C0E07441
:10028000FCC0E0747FC0E07446C0E08A828B838C3F
:10029000F0ED120583AA82AB83ACF0FDE58124FC6E
:1002A000F5818A828B838CF0ED22C2EDD2EC30EDA9
:1002B000FD85BD8285BE83229001F41201C0747455
:1002C000C0E07400C0E07480C0E0120562158115C2
:1002D00081158174E0C0E07400C0E07480C0E074F7
:1002E000D4C0E07400C0E07480C0E074A6C0E074C4
:1002F00000C0E07480C0E07479C0E07400C0E074B5
:1003000080C0E0120562E58124F4F581751A057557
:1003100082021201FB751A067582021201FB751A20
:10032000017582021201FB12017C438901C28C75A6
:100330008C00758A0075820E12024FAA82AB83ACC4
:10034000F0FDE4C0E0C0E07480C0E07440C0E08A2A
:10035000828B838CF0ED12044AAA82E58124FCF59D
:1003600081EA70D175820E12024FAA82AB83ACF083
:10037000FDE4C0E0C0E0C0E0743FC0E08A828B834F
:100380008CF0ED12047AAA82E58124FCF581EA70F2
:10039000D3D28C7A007B0075820EC002C003120299
:1003A0004FAC82AD83AEF0FFE4C0E0C0E07480C02B
:1003B000E07440C0E08C828D838EF0EF12044AAC72
:1003C00082E58124FCF581D003D002EC6012308DEF
:1003D000C6758C00758A00C28D0ABA00BA0B80B748
:1003E000C28CC002C00374E9C0E07400C0E0748035
:1003F000C0E0120562E58124FBF581AB8C7A00C078
:1004000002C00374FEC0E07400C0E07480C0E0125B
:100410000562E58124FBF581AA8A7B00C002C00346
:10042000740FC0E07401C0E07480C0E0120562E5A2
:100430008124FBF5819001901201C002032DE4ACF0
:1004400083AB82FAF9748E0206ABFFA881181812EA
:1004500006D3D2D133E6400730E70B758201222064
:10046000E70675820022C2D11206B5E97003F58253
:100470002230D101B3E433F58222FFA8811818128B
:1004800006D3D2D133E6400730E70B758200222035
:10049000E70675820122C2D11206B5E97003F58222
:1004A0002220D101B3E433F58222120780BC00037D
:1004B00002071FEF60FA30D502B2D1E583B4FF0323
:1004C000020735E582B4FF03020735258340072480
:1004D00082400B02071F2483145003020735F58264
:1004E000EA8DF0A4A8F0EA8EF0A428F8E435F0F93B
:1004F000EB8DF0A428E935F0F9E433CA8FF0A42994
:10050000F9EA35F0FAEBF88EF0A429F9EA35F0FAB9
:10051000E433FBEC8DF0A429F9EA35F0FAE43BFB77
:10052000E88FF0A42AFAEB35F0FBE433CCFD8EF033
:10053000A42AFAEB35F0FBE43CFCED8FF0A42BFB96
:10054000EC35F0FC20E70312074D0206FE020DCE4B
:1005500085823085833185F03285193390054D02CF
:100560000837C008858108E50824FBF533E5082431
:10057000FBF8863008863108863290054D12083720
:10058000D0082212078030D502B2D1BF0009BC00CA
:1005900003020742020735BC000302071FE583B4CC
:1005A000FF0BE582B4FF0302074202071FE582B496
:1005B000FF03020735C395835007247F400B0207D2
:1005C0001F2480145003020735C0E0E4CCCBCAF9E5
:1005D0008D1A8E1B8F1CEF54F0C4F51D7583068594
:1005E0001DF0EB84F582E9C4F9EAC4FAEBC4FBEC34
:1005F000540FC47803D6FC18EBD6FB18EAD6FA855C
:1006000082F0EDA4A8F0FD8582F0EEA428FEE4358A
:10061000F0F88582F0EFA428FFE435F0F8E99DF9C1
:10062000EA9EFAEB9FFBEC98FCAD1AAE1BAF1C30B8
:10063000E7101582E92DF9EA3EFAEB3FFBE43CFCBA
:1006400080EDC082D58398C3E933F9EA33FAEB33FE
:10065000FBEC33FCC3E99DEA9EEB9FEC9400B3E412
:1006600013F9D002D0E0C44AFAD003D0E0C44BFB67
:10067000D004D0E0F5F0540FC44CFCD08215823089
:10068000F40FD3EC13FCEB13FBEA13FAE913F905AF
:1006900082E930E70A74012AFAE43BFBE43CFC02FD
:1006A0000716FCABF0AA83A982749EC2D1F5821210
:1006B000074D0206FE7901AA82E68F82B5821318E1
:1006C000E6B5F00E18E6B5830918E68A82B582020F
:1006D000790022B4800FE5F0700AE5837006E582A8
:1006E00070027F00EFB6801518B6001018B6000B28
:1006F00018B6000608080876002208080822B98003
:1007000003EA13B34010EA2401FAE43BFBE43CFCA7
:1007100050047C800582BC000EBB000BBA0008E4CC
:10072000F5F0F583F58222A2D1E582138CF092F7E1
:100730008B838A8222E4F583F58275F080F4A2D15E
:100740001322E4F583F58275F0C0747F227804ECFF
:100750007011E58224F8500AF582E4C9CACBFCD8AE
:10076000EF22EC7820058220E713D5820122C3E92D
:1007700033F9EA33FAEB33FBEC33FCD8EA15822287
:10078000AA82AB83A2F73392D16002D2F7F582AC92
:10079000F0E58124F9F8E6FD08E6FE0886F008E6B3
:1007A000A2F73392D56002D2F7F583AFF022AA8286
:1007B00074BFC0E07407C0E0C022C0238A82220553
:1007C00029E4B52902052A22AA8274302AFA24C60D
:1007D000500A74072AFA3000034302208A82020773
:1007E000AEE582FAC4540FF582C0021207C8D002E7
:1007F000740F5AF5820207C8AA24AB25AC26AD2790
:10080000AE28752F20EE2EFEED235401FF4206EA9E
:100810002AFAEB33FBEC33FCED33FDC3EE952B40B2
:1008200008EEC3952BFE430201D52FD98A248B25D0
:100830008C268D278E2822858222858323E4F52924
:10084000F52AAA30AB31AC328A828B838CF0120D40
:10085000E3FD74012AF530E43BF5318C32EDFA709A
:1008600003020DC7BA25028003020DBFC204C205F0
:10087000C206C207C208C209C20AC20BC201C20232
:10088000C203752B00752C00752DFFAB30AC31AD5C
:10089000328B828C838DF0120DE3FAA3AB82AC8392
:1008A0008B308C318D32BA25078A821207AE809246
:1008B0008A06BE3000402E8A06EE24C6402774FF0A
:1008C000B52D13E52C75F00AA4FEEA24D02EF52CE4
:1008D00070BFD20580BBE52D75F00AA4FEEA24D0D6
:1008E0002EF52D80ACBA2E0A74FFB52DA4752D00FF
:1008F000809F8A06BE6100400E8A06EE248540076E
:100900005302DFD2008002C200BA20028075BA23EF
:1009100003020992BA2A03020997BA2B02805FBA2E
:100920002D028055BA4202805FBA43030209DCBA45
:100930004403020B17BA4503020B31BA4603020BFC
:100940002DBA4703020B35BA4903020B17BA4C0202
:10095000803BBA4E03020B39BA4F03020B1EBA504A
:1009600003020AB0BA5303020A00BA5503020B236A
:10097000BA5803020B28020B63D204020891D20674
:10098000020891D207020891D209020891D20A0204
:100990000891D20B02089174FFB52D2030090BE5A8
:1009A0003314F88833862C020891E53324FEF88846
:1009B000338606088607188E2C02089130090BE54D
:1009C0003314F88833862D020891E53324FEF88825
:1009D000338606088607188E2D02089130090AE52D
:1009E0003314F888338602800FE53324FEF8883309
:1009F0008603088604188B028A821207AE020B68EF
:100A0000E53324FDF8883386030886040886051834
:100A1000188B248C258D268B828C838DF0120E18DA
:100A2000AB82AC838B2E74FFB52D03852E2D200455
:100A30001DC3E52E952C5016E52CC3952EF52CAB39
:100A40002C152CEB60087582201207AE80F18524EE
:100A5000828525838526F0120DE3FBFA6029AB2DF4
:100A6000152DC3E464808BF063F08095F050188AF4
:100A7000821207AEAB24AC25AD260BBB00010C8B5C
:100A8000248C258D2680C7200403020B68C3E52E25
:100A9000952C4003020B68E52CC3952EF52CAB2C4E
:100AA000152CEB7003020B687582201207AE80EEE6
:100AB000E53324FDF8883386030886040886051884
:100AC000188B248C258D26E526FB30E7047A43809D
:100AD00013EB546060047A50800AEB30E6047A49E4
:100AE00080027A588A82C0021207AE75823A1207D3
:100AF000AE7582301207AE7582781207AED002BA98
:100B00004902800BBA500280068525821207E185D2
:100B100024821207E18051D208752B0A804A752B76
:100B2000088045752B0A8040752B10803BD20180D0
:100B300037D2028033D203802FE53324FDF8883387
:100B4000860308860408860518188B248C258D26B4
:100B50008B828C838DF0E529120DFFA3E52A120DFF
:100B6000FF80058A821207AE2001062002033003AF
:100B70005AE53324FCF88833860308860408860582
:100B80000886061818188B248C258D268E27752428
:100B90001F752501752680852434852535852636E3
:100BA00074012534FEE43535FFAB368E248F258B5A
:100BB000268534828535838536F0120DE3FBFA7085
:100BC000030208428A821207AE80CCE52B70030232
:100BD00008427B3C30092BE53314F88833E6FC33BC
:100BE00095E0FDFEFF8C248D258E268F2720085E44
:100BF000AC247D007E007F008C248D258E268F27DF
:100C0000804C300A1FE53324FCF8883386040886BC
:100C1000050886060886071818188C248D258E2648
:100C20008F27802AE53324FEF8883386040886055A
:100C300018ED3395E0FEFF8C248D258E268F27201E
:100C4000080CAC24AD257E007F008E268F27300B4C
:100C500043E52445254526452760397408B52B0C06
:100C6000758230C0031207AED00380287410B52BF4
:100C700023758230C0031207AED00330000C75829A
:100C800078C0031207AED003800A758258C00312E1
:100C900007AED003300825AC24AD25AE26E527FFEE
:100CA00030E717C3E49CFCE49DFDE49EFEE49FFF57
:100CB0008C248D258E268F278002C208752E00D2A7
:100CC0000C8B00752800C0001207F8D000200C0D16
:100CD000E528C4FCE6FD4CF61888038002A628052A
:100CE0002EB20CE52445254526452770D68803E518
:100CF0002C7003752C0120051A200417E52E04FC26
:100D0000C3952C500E758220C0031207AED0031578
:100D10002C80E930080E75822DC0031207AED00377
:100D2000152C8024E52E602030060E75822BC00322
:100D30001207AED003152C800F30070C758220C02F
:100D4000031207AED003152C20041EAC2C152CC3A7
:100D5000E52E9C50273005047C3080027C208C825C
:100D6000C0031207AED00380E2C3E52E952C5009D4
:100D7000E52CC3952EF52C8003752C008B00AB2E33
:100D8000152EEB6022B20C200C0A08E6C4540FFBAF
:100D90008B2880078603740F5BF528852882C000A6
:100DA0001207C8D00080D7200403020842AB2C15DC
:100DB0002CEB70030208427582201207AE80EE8A87
:100DC000821207AE020842852982852A8322AA82DE
:100DD000BA0A0810990280FB75990D10990280FBE0
:100DE0008A992220F71430F6148883A88220F50708
:100DF000E6A88375830022E280F7E49322E02220B4
:100E0000F71030F6118883A88220F507F6A88375BD
:100E1000830022F280F7F022AA82AB83ACF07D003F
:100E20007E008A828B838CF0120DE3FFA3AA82AB33
:100E300083EF60070DBD00EA0E80E78D828E83226E
:00000001FF
