:1000000002000375817F1201A8E582600302006F80
:10001000780079007A007B007C007D00EC4D601C4C
:1000200088828983E493A3A882A9838A828B83F040
:10003000A3AA82AB831CBCFFE31D80E07582007520
:1000400083007C107D00EC4D600AE4F0A31CBCFF33
:10005000F51D80F27582007583007C007D00EC4DFB
:10006000600AE4F0A31CBCFFF51D80F21201A4128B
:10007000058080FE1B5B324A004144432074657357
:10008000742070726F6772616D0A46696C653A2000
:1000900025730A436F6D70696C65643A2025732C73
:1000A0002025730A0A00433A5C59656172325C4547
:1000B0004C45433239315C4C6162355C454C4543BB
:1000C0003239312D6C6162355C6C6162352E6300B2
:1000D0004D617220203720323032340031353A32CF
:1000E000393A3338000A5265666572656E63652079
:1000F0004672657175656E63793A252E3566000A1C
:100100005265666572656E636520416D706C6974D9
:100110007564653A252E3566000A4D656173757202
:100120006564204672657175656E63793A252E3572
:1001300066000A4D6561737572656420416D706C6F
:1001400069747564653A252E3566000A52656C61DE
:10015000746976652050686173653A252E35660AA4
:1001600000524D533D25312E3166562C663A2534CA
:100170002E306600506B3D25312E3166562C663A86
:1001800025342E306600503D252E3166204C4147E7
:1001900047494E4700503D252E3166204C4541448D
:1001A000494E47007522002275A7007597DE7597A6
:1001B000AD75FF8075EF0675A71075C12075A70096
:1001C00075A90075A900E5A930E7FB75A90375A914
:1001D00003E5A930E7FB43A41075E10175E2007562
:1001E000E340759810758DE6858D8B53890F438993
:1001F00020D28ED2997582002275A700C2EF75B207
:100200008075BC2075B91E75E80075DF3F75B300B9
:10021000D2EF22AA82438E407592B87593FF8592E1
:10022000948593957591047B00C3EB9A500BE591EF
:1002300030E7FB53917F0B80F075910022AA82ABCF
:10024000837C007D00C3EC9AED9B502B7E00BE04A6
:1002500000501D7582FAC002C003C004C005C0066C
:10026000120213D006D005D004D003D0020E80DED7
:100270000CBC00D10D80CE22D2A0758228120213B0
:10028000C2A022AA828AE0A2E79290A2E69291A25C
:10029000E59292A2E49293C002120278758228122B
:1002A0000213D0028AE0A2E39290A2E29291A2E12C
:1002B0009292A2E09293020278AA82D2978A821244
:1002C000028390000202023DAA82C2978A82120231
:1002D0008390000502023DC2A090001412023D75F9
:1002E00082331202C87582331202C875823212023A
:1002F000C87582281202C875820C1202C875820164
:100300001202C890001402023DAA82AB83ACF074C2
:1003100002B523047DC080027D808D82C002C003AF
:10032000C0041202C890000512023DD004D003D0D0
:10033000027D007E00ED2AFFEE3BF88C018F828863
:100340008389F0121490FF60208F82C002C003C026
:1003500004C005C0061202B9D006D005D004D003EF
:10036000D0020DBD00CF0E80CC3000248D028E0354
:10037000C3EA9410EB648094805015758220C0020B
:10038000C0031202B9D003D0020ABA00E30B80E026
:1003900022AA82AB83ACF07402B524047DC0800233
:1003A0007D808D82C002C003C0041202C890000587
:1003B00012023DD004D003D0027D007E00ED2AFF62
:1003C000EE3BF88C018F82888389F0121490FF60D5
:1003D000208F82C002C003C004C005C0061202B94B
:1003E000D006D005D004D003D0020DBD00CF0E80C2
:1003F000CC3001248D028E03C3EA9410EB64809408
:10040000805015758220C002C0031202B9D003D0FB
:10041000020ABA00E30B80E02285822785832885C3
:10042000F029E4F52AF52BE52524FFFFE52634FF26
:10043000F879007A00C3E99FEA648088F063F0806D
:1004400095F05059C002C007C000C001121655AB4C
:1004500082D001D000D007D002BB0A028003BB0DBE
:100460001DE52A2527FCE52B3528FDAE298C828D3C
:10047000838EF0E4121668852A82852B8322E92573
:1004800027FCEA3528FDAE298C828D838EF0EB1295
:10049000166809B900010A892A8A2B8098E52A255D
:1004A00027FAE52B3528FBAC298A828B838CF0E474
:1004B00012166885258285268322AA828511F00579
:1004C000F07401800225E0D5F0FBFB75A720BA008F
:1004D00002800ABA0102800FBA021E8014EBF4FAFD
:1004E00052F1EB42D48012EBF4FA52F2EB42D58097
:1004F00008EBF4FA52F3EB42CC75A700228582BBDD
:10050000C2EDD2EC30EDFD85BD8285BE83221204A2
:10051000FD1214ACAA82AB83ACF0FDC002C003C0D4
:1005200004C005906C8B75F0537440121518AA82A4
:10053000AB83ACF0FDE58124FCF581E4C0E074FC04
:10054000C0E0747FC0E07446C0E08A828B838CF088
:10055000ED12172EAA82AB83ACF0FDE58124FCF5E9
:10056000818A828B838CF0ED22C2EDD2EC30EDFDDE
:1005700085BD8285BE83225389F0438901C28C22C6
:10058000753400753500753600753700753800759F
:100590003900753A00753B00753C00753D00753EAD
:1005A00000753F00754000754100754200754300BD
:1005B000754400754500754600754700754800751F
:1005C0004900754A00754B00755000755100755211
:1005D0000075530075540075550075560075570029
:1005E000755800755900755A00755B009001F4123A
:1005F000023D7474C0E07400C0E07480C0E0121664
:100600003415811581158174DCC0E07400C0E0747C
:1006100080C0E074D0C0E07400C0E07480C0E074BA
:10062000A6C0E07400C0E07480C0E07479C0E074DB
:1006300000C0E07480C0E0121634E58124F4F58136
:100640007511027582021204BA75110675820212C2
:1006500004BA1201F91205771202D7E4F55CF55DD0
:10066000C3E55C9402E55D648094804003020A0A5D
:10067000C28C758C00758A00C28D75220020A1FD88
:1006800030A1FDD28C75826412021330A109308D25
:10069000FA0522C28D80F4C28C8522821215BBAA73
:1006A00082AB83ACF0FDC002C003C004C005900063
:1006B0000075F0807447121518AA82AB83ACF0FD68
:1006C000E58124FCF581858C82C002C003C004C092
:1006D000051215BBAE82AF83A8F0F9C006C007C0F3
:1006E00000C00190000075F0807443121518AE82AE
:1006F000AF83A8F0F9E58124FCF581D005D004D0C2
:1007000003D002C006C007C000C0018A828B838C60
:10071000F0ED1215C6AA82AB83ACF0FDE58124FC96
:10072000F581AE8A7F008E828F83C002C003C00431
:10073000C005121721AE82AF83A8F0F9D005D0040E
:10074000D003D002C006C007C000C0018A828B83DC
:100750008CF0ED1215C6AA82AB83ACF0FDE58124C6
:10076000FCF581C002C003C004C00590F4FC75F024
:1007700032743412151885822C85832D85F02EF560
:100780002FE58124FCF581C28C758C00758A00C22E
:100790008D75220020A1FD30A1FDD28C75820A1238
:1007A000021330A109308DFA0522C28D80F4C28C6B
:1007B0008522821215BBAE82AF83A8F0F9C006C0B5
:1007C00007C000C00190000075F080744712151832
:1007D000AE82AF83A8F0F9E58124FCF581858C8297
:1007E000C006C007C000C0011215BBAA82AB83AC13
:1007F000F0FDC002C003C004C00590000075F08089
:100800007443121518AA82AB83ACF0FDE58124FC79
:10081000F581D001D000D007D006C002C003C004CB
:10082000C0058E828F8388F0E91215C6AA82AB8339
:10083000ACF0FDE58124FCF581AE8A7F008E828FCD
:1008400083C002C003C004C005121721AE82AF836B
:10085000A8F0F9D005D004D003D002C006C007C06C
:1008600000C0018A828B838CF0ED1215C6AA82AB80
:1008700083ACF0FDE58124FCF581C002C003C00417
:10088000C00590F4FC75F03274341215188582346A
:1008900085833585F036F537E58124FCF581C03454
:1008A000C035C036C037900000E4F5F07440121532
:1008B00018AA82AB83ACF0FDE58124FCF581C0026F
:1008C000C003C004C00590000075F080743F12178B
:1008D0002EAA82AB83ACF0FDE58124FCF581C00239
:1008E000C003C004C005C02CC02DC02EC02F900076
:1008F00000E4F5F07440121518AE82AF83A8F0F949
:10090000E58124FCF581C006C007C000C00190004D
:100910000075F080743F12172EAE82AF83A8F0F9F5
:10092000E58124FCF581D005D004D003D002C006B7
:10093000C007C000C001C006C007C000C0018A8255
:100940008B838CF0ED121716AA82AB83ACF0FDE519
:100950008124FCF5818A828B838CF0ED12148DAAA0
:1009600082AB83ACF0FDC038C039C03AC03B8A824C
:100970008B838CF0ED1214B8AA82E58124FCF581FA
:10098000D001D000D007D006EA6074C006C007C00E
:1009900000C001C034C035C036C037900000E4F557
:1009A000F07440121518AA82AB83ACF0FDE58124E7
:1009B000FCF581C002C003C004C00590000075F0C2
:1009C00080743F12172EAA82AB83ACF0FDE5812420
:1009D000FCF5818A828B838CF0ED121716AA82AB0C
:1009E00083ACF0FDE58124FCF5818A828B838CF059
:1009F000ED12148D85823885833985F03AF53B05F3
:100A00005CE4B55C02055D020660E4C0E0C0E07431
:100A1000FAC0E07445C0E0853882853983853AF0B4
:100A2000E53B1214E8AA82E58124FCF581EA6069BD
:100A300090019012023DC034C035C036C0379000DE
:100A400000E4F5F07440121518AA82AB83ACF0FDF7
:100A5000E58124FCF581C002C003C004C0059000FC
:100A60000075F080743F12172E8582588583598552
:100A7000F05AF55BE58124FCF581C058C059C05A95
:100A8000C05B74E5C0E07400C0E07480C0E0121682
:100A900034E58124F9F581801DC058C059C05AC081
:100AA0005B74E5C0E07400C0E07480C0E0121634EE
:100AB000E58124F9F581753800753900753A0075BE
:100AC0003B00C28C758C00758A00C28D7522002097
:100AD000A1FD30A1FDD28C75820A12021330A1440F
:100AE000308D040522C28D75820F12050EAA82ABCD
:100AF00083ACF0FDC048C049C04AC04B8A828B839A
:100B00008CF0ED1214B8AA82E58124FCF581EA602C
:100B1000CC75820F12050E85824885834985F04A7F
:100B2000F54B80B9C28C746FC0E07412C0E074835E
:100B3000C0E0743AC0E0854882854983854AF0E583
:100B40004B1214E8AA82E58124FCF581EA601FC0FB
:100B500054C055C056C05774FFC0E07400C0E07464
:100B600080C0E0121634E58124F9F581802985489A
:100B700054854955854A56854B57C048C049C04A97
:100B8000C04B74FFC0E07400C0E07480C0E0121677
:100B900034E58124F9F581E4F548F549F54AF54B4A
:100BA000F55CF55DC3E55C9402E55D64809480408E
:100BB00003020F4EC28C758C00758A00C28D75229F
:100BC0000020A3FD30A3FDD28C7582641202133085
:100BD000A309308DFA0522C28D80F4C28C85228251
:100BE0001215BBAC82AD83AEF0FFC004C005C006D9
:100BF000C00790000075F0807447121518AC82ADE4
:100C000083AEF0FFE58124FCF581858C82C004C0B1
:100C100005C006C0071215BBA882A983AAF0FBC0B5
:100C200000C001C002C00390000075F08074431240
:100C30001518AA82AB83A8F0F9E58124FCF581D0D0
:100C400007D006D005D004C002C003C000C0018C8C
:100C5000828D838EF0EF1215C6AA82AB83ACF0FDB5
:100C6000E58124FCF581AE8A7F008E828F83C002ED
:100C7000C003C004C005121721AE82AF83A8F0F9EB
:100C8000D005D004D003D002C006C007C000C00108
:100C90008A828B838CF0ED1215C6AA82AB83ACF0EE
:100CA000FDE58124FCF581C002C003C004C00590AD
:100CB000F4FC75F032743412151885823085833156
:100CC00085F032F533E58124FCF581C28C758C000A
:100CD000758A00C28D75220020A3FD30A3FDD28C41
:100CE00075820A12021330A309308DFA0522C28DD3
:100CF00080F4C28C8522821215BBAE82AF83A8F02D
:100D0000F9C006C007C000C00190000075F08074F3
:100D100047121518AE82AF83A8F0F9E58124FCF5DF
:100D200081858C82C006C007C000C0011215BBAA15
:100D300082AB83ACF0FDC002C003C004C0059000CC
:100D40000075F0807443121518AA82AB83ACF0FDD5
:100D5000E58124FCF581D001D000D007D006C00287
:100D6000C003C004C0058E828F8388F0E91215C6C7
:100D7000AA82AB83ACF0FDE58124FCF581AE8A7FCD
:100D8000008E828F83C002C003C004C005121721E9
:100D9000AE82AF83A8F0F9D005D004D003D002C052
:100DA00006C007C000C0018A828B838CF0ED12154B
:100DB000C6AA82AB83ACF0FDE58124FCF581C002BC
:100DC000C003C004C00590F4FC75F03274341215F1
:100DD0001885823485833585F036F537E58124FC26
:100DE000F581C034C035C036C037900000E4F5F05E
:100DF0007440121518AA82AB83ACF0FDE58124FC87
:100E0000F581C002C003C004C00590000075F080E9
:100E1000743F12172EAA82AB83ACF0FDE58124FC4F
:100E2000F581C002C003C004C005C030C031C0326B
:100E3000C033900000E4F5F07440121518AE82AF94
:100E400083A8F0F9E58124FCF581C006C007C00045
:100E5000C00190000075F080743F12172EAE82AF73
:100E600083A8F0F9E58124FCF581D005D004D003F6
:100E7000D002C006C007C000C001C006C007C00045
:100E8000C0018A828B838CF0ED121716AA82AB8385
:100E9000ACF0FDE58124FCF5818A828B838CF0ED3A
:100EA00012148DAA82AB83ACF0FDC03CC03DC03EA5
:100EB000C03F8A828B838CF0ED1214B8AA82E58140
:100EC00024FCF581D001D000D007D006EA6074C0C0
:100ED00006C007C000C001C034C035C036C037905E
:100EE0000000E4F5F07440121518AA82AB83ACF050
:100EF000FDE58124FCF581C002C003C004C005905B
:100F0000000075F080743F12172EAA82AB83ACF0FC
:100F1000FDE58124FCF5818A828B838CF0ED12172C
:100F200016AA82AB83ACF0FDE58124FCF5818A82B0
:100F30008B838CF0ED12148D85823C85833D85F08A
:100F40003EF53F055CE4B55C02055D020BA4E4C020
:100F5000E0C0E074FAC0E07445C0E0853C82853DA5
:100F600083853EF0E53F1214E8AA82E58124FCF572
:100F700081EA606990019012023DC034C035C036EC
:100F8000C037900000E4F5F07440121518AA82AB47
:100F900083ACF0FDE58124FCF581C002C003C004F0
:100FA000C00590000075F080743F12172E858250A6
:100FB00085835185F052F553E58124FCF581C050BD
:100FC000C051C052C0537419C0E07401C0E07480B5
:100FD000C0E0121634E58124F9F581801DC050C0AF
:100FE00051C052C0537419C0E07401C0E07480C095
:100FF000E0121634E58124F9F581753C00753D0059
:10100000753E00753F00C28C758C00758A00C28DDC
:1010100075220020A3FD30A3FDD28C75820A120236
:101020001330A34B308D040522C28D758213120537
:101030000EAA82AB83ACF0FDC002C003C004C005A1
:10104000C040C041C042C0438A828B838CF0ED1205
:1010500014B8AE82E58124FCF581D005D004D0031C
:10106000D002EE60BC8A408B418C428D4380B2C27C
:101070008C746FC0E07412C0E07483C0E0743AC036
:10108000E08540828541838542F0E5431214E8AA59
:1010900082E58124FCF581EA601FC044C045C0465A
:1010A000C0477432C0E07401C0E07480C0E0121622
:1010B00034E58124F9F581802985404485414585C1
:1010C0004246854347C040C041C042C0437432C01D
:1010D000E07401C0E07480C0E0121634E58124F9A8
:1010E000F581754000754100754200754300C28C62
:1010F000758C00758A00C28D75220020A1FD30A17B
:10110000FDD28C30A309108D0280F8052280F420D6
:10111000A309108D0280F8052280F4C28C852282FA
:101120001215BBAA82AB83ACF0FDC002C003C004A1
:10113000C00590000075F0807447121518AA82ABA4
:1011400083ACF0FDE58124FCF581858C82C002C072
:1011500003C004C0051215BBAE82AF83A8F0F9C06E
:1011600006C007C000C00190000075F080744312F3
:101170001518AE82AF83A8F0F9E58124FCF581D083
:1011800005D004D003D002C006C007C000C0018A49
:10119000828B838CF0ED1215C6AA82AB83ACF0FD76
:1011A000E58124FCF581AE8A7F008E828F83C002A8
:1011B000C003C004C005121721AE82AF83A8F0F9A6
:1011C000D005D004D003D002C006C007C000C001C3
:1011D0008A828B838CF0ED1215C6AA82AB83ACF0A9
:1011E000FDE58124FCF581C002C003C004C0059068
:1011F000F4FC75F0327434121518AA82AB83ACF08B
:10120000FDE58124FCF581C002C003C004C0059047
:10121000000075F0B47443121518AA82AB83ACF0C9
:10122000FDE58124FCF581C002C003C004C005C0F7
:1012300058C059C05AC05B90000075F080743F12CE
:10124000172EAE82AF83A8F0F9E58124FCF581D09A
:1012500005D004D003D002C006C007C000C0018A78
:10126000828B838CF0ED12172EAA82AB83ACF0FD3B
:10127000E58124FCF5818A4C8B4D8C4E8D4FC0024C
:10128000C003C004C005E4C0E0C0E0C0E0C0E08A24
:10129000828B838CF0ED1214E8AE82E58124FCF59C
:1012A00081D005D004D003D002EE603A8A4C8B4D39
:1012B0008C4EEDB2E7F54FC002C003C004C005C0BC
:1012C0004CC04DC04EC04F744BC0E07401C0E074C0
:1012D00080C0E0121634E58124F9F581D005D004F0
:1012E000D003D002804DC002C003C004C005C002BC
:1012F000C003C004C00590000075F0347443121799
:1013000016AE82AF83A8F0F9E58124FCF581C00612
:10131000C007C000C001744BC0E07401C0E074801D
:10132000C0E0121634E58124F9F581D005D004D04F
:1013300003D00230B76DC002C003C004C00574F30F
:10134000C0E07404C0E074B5C0E0743FC0E0854400
:10135000828545838546F0E54712172EAE82AF831E
:10136000A8F0F9E58124FCF581C058C059C05AC0E5
:101370005BC006C007C000C0017461C0E07401C05A
:10138000E07480C0E07400C0E07400C0E0E4C0E03D
:101390001216D0E58124F2F581D005D004D003D017
:1013A000028040C002C003C004C005C058C059C07C
:1013B0005AC05BC044C045C046C0477474C0E074A6
:1013C00001C0E07480C0E07400C0E07400C0E0E4DC
:1013D000C0E01216D0E58124F2F581D005D004D00A
:1013E00003D002752301D20090000075F000C00206
:1013F000C003C004C005120309D005D004D003D037
:1014000002E4C0E0C0E0C0E0C0E08A828B838CF0E0
:10141000ED1214E8AA82E58124FCF581EA602AC075
:101420004CC04DC04EC04F7486C0E07401C0E07423
:1014300080C0E07400C0E07400C0E0E4C0E01216B8
:10144000D0E58124F6F5818033AA4CAB4DAC4EE556
:101450004FB2E7FDC002C003C004C0057495C0E0F0
:101460007401C0E07480C0E07400C0E07400C0E0AB
:10147000E4C0E01216D0E58124F6F581752402D28D
:101480000190000075F00012039102065BC2E72292
:1014900020F71430F6148883A88220F507E6A88385
:1014A00075830022E280F7E49322E022E4AC83AB70
:1014B00082FAF9748E021856FFA881181812187E45
:1014C000D2D133E6400730E70B7582012220E706D0
:1014D00075820022C2D1121860E97003F5822230B1
:1014E000D101B3E433F58222FFA881181812187EC7
:1014F000D2D133E6400730E70B7582002220E706A1
:1015000075820122C2D1121860E97003F58222208F
:10151000D101B3E433F5822212192BBC0003021867
:10152000CAEF60FA30D502B2D1E583B4FF030218E6
:10153000E0E582B4FF030218E025834007248240DF
:101540000B0218CA24831450030218E0F582EA8DB6
:10155000F0A4A8F0EA8EF0A428F8E435F0F9EB8DB9
:10156000F0A428E935F0F9E433CA8FF0A429F9EAA8
:1015700035F0FAEBF88EF0A429F9EA35F0FAE43305
:10158000FBEC8DF0A429F9EA35F0FAE43BFBE88F97
:10159000F0A42AFAEB35F0FBE433CCFD8EF0A42A5C
:1015A000FAEB35F0FBE43CFCED8FF0A42BFBEC35C3
:1015B000F0FC20E7031218F80218A9E4AC82FBFA49
:1015C000F9748602185612192B7900E583B5820248
:1015D000800D5003121959E583C39582121973E5E2
:1015E000D0C465D020E117EA2DFAEB3EFBEC3FFCBE
:1015F00050097401121973EC4480FC0218A9C3EA63
:101600009DFAEB9EFBEC9FFC500FC3E499F9E49A22
:10161000FAE49BFBE49CFCB2D11218F80218A90270
:10162000234285826C85836D85F06E85106F9016E0
:101630001F021D95C008858108E50824FBF56FE5AC
:101640000824FBF8866C08866D08866E90161F12BB
:101650001D95D0082210980280FBAA998A82C002A8
:10166000122342D0028A822220F71030F61188839A
:10167000A88220F507F6A88375830022F280F7F090
:1016800022AA82AB09AC0AAD0B8B828C838DF0EA67
:101690001216680509E4B50902050A228582098542
:1016A000830A85F00B850C6C850D6D850E6E850F9C
:1016B0006F901681121D95AA82AB83AC09AD0AAE5C
:1016C0000B8C828D838EF0E41216688A828B8322C3
:1016D000C008858108E50824F8F56FE50824FBF8C3
:1016E000860908860A08860BE50824F8F8866C083F
:1016F000866D08866E901681121D95AA82AB83AC0A
:1017000009AD0AAE0B8C828D838EF0E41216688AC6
:10171000828B83D00822A8811818C6B2E7C60215AA
:10172000C6AC83AB827A007900748E0223601219F2
:101730002B30D502B2D1BF0009BC00030218ED0264
:1017400018E0BC00030218CAE583B4FF0BE582B4BD
:10175000FF030218ED0218CAE582B4FF030218E085
:10176000C395835007247F400B0218CA248014506D
:10177000030218E0C0E0E4CCCBCAF98D118E128FC1
:1017800013EF54F0C4F5147583068514F0EB84F55B
:1017900082E9C4F9EAC4FAEBC4FBEC540FC4780341
:1017A000D6FC18EBD6FB18EAD6FA8582F0EDA4A891
:1017B000F0FD8582F0EEA428FEE435F0F88582F095
:1017C000EFA428FFE435F0F8E99DF9EA9EFAEB9FD3
:1017D000FBEC98FCAD11AE12AF1330E7101582E9A7
:1017E0002DF9EA3EFAEB3FFBE43CFC80EDC082D5EC
:1017F0008398C3E933F9EA33FAEB33FBEC33FCC3E8
:10180000E99DEA9EEB9FEC9400B3E413F9D002D07B
:10181000E0C44AFAD003D0E0C44BFBD004D0E0F5DA
:10182000F0540FC44CFCD082158230F40FD3EC136B
:10183000FCEB13FBEA13FAE913F90582E930E70A36
:1018400074012AFAE43BFBE43CFC0218C1FCABF057
:10185000AA83A982749EC2D1F5821218F80218A92F
:101860007901AA82E68F82B5821318E6B5F00E18C8
:10187000E6B5830918E68A82B58202790022B4802F
:101880000FE5F0700AE5837006E58270027F00EFD5
:10189000B6801518B6001018B6000B18B60006086A
:1018A000080876002208080822B98003EA13B3402A
:1018B00010EA2401FAE43BFBE43CFC50047C800584
:1018C00082BC000EBB000BBA0008E4F5F0F583F50E
:1018D0008222A2D1E582138CF092F78B838A822236
:1018E000E4F583F58275F080F4A2D11322E4F58348
:1018F000F58275F0C0747F227804EC7011E58224C3
:10190000F8500AF582E4C9CACBFCD8EF22EC782063
:10191000058220E713D5820122C3E933F9EA33FABD
:10192000EB33FBEC33FCD8EA158222AA82AB83A20C
:10193000F73392D16002D2F7F582ACF0E58124F959
:10194000F8E6FD08E6FE0886F008E6A2F73392D531
:101950006002D2F7F583AFF022E582C583F582A25B
:10196000D133A2D592D11392D5ECCFFCEBCEFBEACA
:10197000CDFA226040F82582500274FFF582E824F7
:10198000F8501ECCCBCAF9E4CC24F85014CBCAF9D9
:10199000E4CB24F8500BCAF9E4CA24F850037900C8
:1019A0002224086010F8C3EC13FCEB13FBEA13FAD3
:1019B000E913F9D8F122AA8274C7C0E07419C0E013
:1019C000C05EC05F8A82220565E4B56502056622B5
:1019D000AA8274302AFA24C6500A74072AFA3002FE
:1019E000034302208A820219B6E582FAC4540FF535
:1019F00082C0021219D0D002740F5AF5820219D097
:101A0000AA60AB61AC62AD63AE64756B20EE2EFE76
:101A1000ED235401FF4206EA2AFAEB33FBEC33FCD8
:101A2000ED33FDC3EE95674008EEC39567FE4302B4
:101A300001D56BD98A608B618C628D638E6422784C
:101A40007CE624D075F00AA4FA787DE624D02AFA40
:101A5000787B8603BB2D04C3E49AFA756701C3E45F
:101A600064808AF063F08095F05029756B038A03D7
:101A700074F6256B401C0567E56B142470F8E56B64
:101A80002470F98704A604772E1BEBFA6004056B1B
:101A900080DE8B02EA30E70D787186037872A60348
:101AA0007871762E0AE569600AE56904FB2567F519
:101AB000678005300D02056778708603E4BB2D0151
:101AC00004FB700620080330090205673006030294
:101AD0001B86300757EB600C75822DC0021219B6B9
:101AE000D002801C30080C75822BC0021219B6D0AF
:101AF00002800D30090A758220C0021219B6D00288
:101B000078718604BC2E0C758230C0021219B6D0D2
:101B1000021568AC681568C3E5679C4003021BCAE0
:101B2000758230C0021219B6D00280E7AC68156821
:101B3000C3E5679C500C758220C0021219B6D00212
:101B400080EA78708604BC2D0C75822DC0021219B3
:101B5000B6D002801C30080C75822BC0021219B658
:101B6000D002800D30090A758220C0021219B6D049
:101B70000278718604BC2E52758230C0021219B6EA
:101B8000D00215688044EB600E75822DC0021219D8
:101B9000B6D0021568802030080E75822BC0021264
:101BA00019B6D0021568800F30090C758220C0026A
:101BB0001219B6D002156878718603BB2E0C758297
:101BC00030C0021219B6D0021568756B01C20FE55C
:101BD0006B2470F88603BB4503021C87BB2E348A36
:101BE00003C3E464808BF063F08095F0500F75823E
:101BF00030C0031219B6D0031B8B0280E48B02D2D3
:101C00000FE5697038200D03021C8775822E1219AA
:101C1000B68074300F278A03EB30E71FC3E464807B
:101C20008569F063F08095F0500C758230C0031226
:101C300019B6D00315690B8B0280DD8B02300F0EB5
:101C4000C3E464808569F063F08095F05021E56B12
:101C50002470F886038B82C0021219B6D002300FAE
:101C60000EE56B2470F88603BB2E02800215691501
:101C700068C3E464808569F063F08095F0400320D8
:101C80000F05056B021BCFC3E464808569F063F028
:101C90008095F0500A7582301219B6156980E830C7
:101CA000060FAA681568EA60087582201219B680C6
:101CB000F122E5697003300D0D74072569FAE568B6
:101CC000C39AF5688006E56824FAF568756B0078B4
:101CD000708602BA2B0F20080C7870762020090538
:101CE000756B010568200619AA68C3E464808AF050
:101CF00063F08095F0500A7582201219B61568803D
:101D0000E7C20FE56B2470F88602BA00028069BA58
:101D1000451F3002027665C3E464808569F063F094
:101D20008095F0500A7582301219B6156980E8D294
:101D30000FC3E56B9402E433FA7014EA700EC3E447
:101D400064808569F063F08095F04003300F16E5FC
:101D50006B2470F886028A821219B6E56B24FD5056
:101D6000121569800E7402B56B09300D0675822E4E
:101D70001219B6056B021D03300619AA68C3E46484
:101D8000808AF063F08095F0500A7582201219B6AF
:101D9000156880E72285825E85835FE4F565F566D8
:101DA000AA6CAB6DAC6E8A828B838CF0121490FDA2
:101DB00074012AF56CE43BF56D8C6EEDFA7003024C
:101DC000233BBA25028003022333C206C207C2089E
:101DD000C209C20AC20BC20CC20DC203C204C205B0
:101DE0007567007568007569FFAB6CAC6DAD6E8B87
:101DF000828C838DF0121490FAA3AB82AC838B6C2F
:101E00008C6D8D6EBA25078A821219B680928A0669
:101E1000BE3000402E8A06EE24C6402774FFB56906
:101E200013E56875F00AA4FEEA24D02EF56870BFA9
:101E3000D20780BBE56975F00AA4FEEA24D02EF52E
:101E40006980ACBA2E0A74FFB569A4756900809FD9
:101E50008A06BE6100400E8A06EE248540075302C2
:101E6000DFD2028002C202BA20028075BA230302C6
:101E70001EF0BA2A03021EF5BA2B02805FBA2D02A9
:101E80008055BA4202805FBA4303021F3ABA440344
:101E9000022075BA450302208FBA460302208BBA8E
:101EA0004703022093BA4903022075BA4C02803BD3
:101EB000BA4E03022097BA4F0302207CBA500302A5
:101EC000200EBA5303021F5EBA5503022081BA588E
:101ED000030220860220C1D206021DEFD208021D95
:101EE000EFD209021DEFD20B021DEFD20C021DEF43
:101EF000D20D021DEF74FFB56920300B0BE56F1496
:101F0000F8886F8668021DEFE56F24FEF8886F86FB
:101F100006088607188E68021DEF300B0BE56F145C
:101F2000F8886F8669021DEFE56F24FEF8886F86DA
:101F300006088607188E69021DEF300B0AE56F143C
:101F4000F8886F8602800FE56F24FEF8886F86039D
:101F5000088604188B028A821219B60220C6E56F21
:101F600024FDF8886F860308860408860518188BF8
:101F7000608C618D628B828C838DF01224A3AB8286
:101F8000AC838B6A74FFB56903856A6920061DC33B
:101F9000E56A95685016E568C3956AF568AB6815FB
:101FA00068EB60087582201219B680F18560828521
:101FB00061838562F0121490FBFA6029AB691569A0
:101FC000C3E464808BF063F08095F050188A82122D
:101FD00019B6AB60AC61AD620BBB00010C8B608CC1
:101FE000618D6280C72006030220C6C3E56A95683A
:101FF00040030220C6E568C3956AF568AB681568BA
:10200000EB70030220C67582201219B680EEE56FD0
:1020100024FDF8886F860308860408860518188B47
:10202000608C618D62E562FB30E7047A438013EBDC
:10203000546060047A50800AEB30E6047A498002EA
:102040007A588A82C0021219B675823A1219B67588
:1020500082301219B67582781219B6D002BA4902C6
:10206000800BBA500280068561821219E985608270
:102070001219E98051D20A75670A804A756708808B
:102080004575670A8040756710803BD2038037D260
:10209000048033D205802FE56F24FDF8886F860316
:1020A00008860408860518188B608C618D628B8207
:1020B0008C838DF0E565121668A3E56612166880BC
:1020C000058A821219B6200306200403300570E544
:1020D0006F24FCF8886F8603088604088605088646
:1020E000061818188B608C618D628E63E560E5615F
:1020F000E562E5638B828C838DF0EE12238474FF9E
:10210000B56903756906300527747F5563FB8B64D9
:10211000E564EB2BFB8B64E56230E70674014564F4
:10212000F564E56424684006749925644002D2048D
:10213000300406121CB2021DA0121A3F021DA0E5B7
:10214000677003021DA07B75300B2BE56F14F888B8
:102150006FE6FC3395E0FDFEFF8C608D618E628F33
:1021600063200A5EAC607D007E007F008C608D6124
:102170008E628F63804C300C1FE56F24FCF8886FF3
:1021800086040886050886060886071818188C60D5
:102190008D618E628F63802AE56F24FEF8886F86DA
:1021A0000408860518ED3395E0FEFF8C608D618E86
:1021B000628F63200A0CAC60AD617E007F008E628E
:1021C0008F63300D43E56045614562456360397456
:1021D00008B5670C758230C0031219B6D003802889
:1021E0007410B56723758230C0031219B6D003305E
:1021F000020C758278C0031219B6D003800A75826A
:1022000058C0031219B6D003300A25AC60AD61AED8
:1022100062E563FF30E717C3E49CFCE49DFDE49EA8
:10222000FEE49FFF8C608D618E628F638002C20A24
:10223000756A00D20E8B00756400C000121A00D0BF
:1022400000200E0DE564C4FCE6FD4CF61888038002
:1022500002A664056AB20EE5604561456245637099
:10226000D68803E568700375680120071A200617F1
:10227000E56A04FCC39568500E758220C0031219EC
:10228000B6D003156880E9300A0E75822DC003129E
:1022900019B6D00315688024E56A602030080E75F1
:1022A000822BC0031219B6D0031568800F30090CB9
:1022B000758220C0031219B6D003156820061EAC23
:1022C000681568C3E56A9C50273007047C3080029B
:1022D0007C208C82C0031219B6D00380E2C3E56A69
:1022E00095685009E568C3956AF5688003756800CC
:1022F0008B00AB6A156AEB6022B20E200E0A08E66C
:10230000C4540FFB8B6480078603740F5BF56485F0
:102310006482C0001219D0D00080D7200603021DAD
:10232000A0AB681568EB7003021DA075822012191E
:10233000B680EE8A821219B6021DA0856582856676
:102340008322AA82BA0A0810990280FB75990D109F
:10235000990280FB8A9922FCABF0AA83A982749E21
:10236000F582C2D1EC30E716D2D1E9F42401F9EAC2
:10237000F43400FAEBF43400FBECF43400FC1218F3
:10238000F80218A9C0E0F84582458345F07009F5C8
:10239000F0FBFCFDFE022452E823A2F792E0F8A92C
:1023A00082AA83D2F7ABF07C007E07C37497984073
:1023B0004074FF2EFE740A89F0A4F985F082740A35
:1023C0008AF0A4FA85F083740A8BF0A4FB740529C3
:1023D000F9EA3582FAEB3583FB740035F0FCC3EC87
:1023E00013FCEB13FBEA13FAE913F908EC70EF8026
:1023F000BAE8C3947FF88B838EF0E4FBFCFDFEFF0C
:1024000008C3E933F9EA33FAE58333F583EB3BD4C8
:10241000FBEC3CD4FCED3DD4FDEE3ED4FEEF3FD4CE
:10242000FF602D05F074052BD4FBE43CD4FCE43DA7
:10243000D4FDE43ED4FEE43FD4FF758204C3EF1321
:10244000FFEE13FEED13FDEC13FCEB13FBD582ED59
:10245000D8AF7870D0E020E704762B8002762D0884
:102460007906E7C4540F4430F608B90603762E08FF
:10247000E7540F4430F60819B902E7764508E5F04D
:1024800020E704762B8004762DF4040875F00A8486
:102490004430F608E5F04430F608E4F69000707534
:1024A000F04022AA82AB83ACF07D007E008A828B52
:1024B000838CF0121490FFA3AA82AB83EF60070D08
:1024C000BD00EA0E80E78D828E83220000000000AE
:00000001FF
